{
  "address": "0xF08F1cD780A02ADB4CDD5311215311034a89666C",
  "abi": [
    {
      "inputs": [
        {
          "internalType": "address",
          "name": "_endpoint",
          "type": "address"
        },
        {
          "internalType": "address",
          "name": "_delegate",
          "type": "address"
        },
        {
          "internalType": "string",
          "name": "_identifier",
          "type": "string"
        }
      ],
      "stateMutability": "nonpayable",
      "type": "constructor"
    },
    {
      "inputs": [],
      "name": "InvalidDelegate",
      "type": "error"
    },
    {
      "inputs": [],
      "name": "InvalidEndpointCall",
      "type": "error"
    },
    {
      "inputs": [],
      "name": "InvalidVersion",
      "type": "error"
    },
    {
      "inputs": [],
      "name": "LzTokenUnavailable",
      "type": "error"
    },
    {
      "inputs": [
        {
          "internalType": "uint32",
          "name": "eid",
          "type": "uint32"
        }
      ],
      "name": "NoPeer",
      "type": "error"
    },
    {
      "inputs": [
        {
          "internalType": "uint256",
          "name": "msgValue",
          "type": "uint256"
        }
      ],
      "name": "NotEnoughNative",
      "type": "error"
    },
    {
      "inputs": [
        {
          "internalType": "address",
          "name": "addr",
          "type": "address"
        }
      ],
      "name": "OnlyEndpoint",
      "type": "error"
    },
    {
      "inputs": [
        {
          "internalType": "uint32",
          "name": "eid",
          "type": "uint32"
        },
        {
          "internalType": "bytes32",
          "name": "sender",
          "type": "bytes32"
        }
      ],
      "name": "OnlyPeer",
      "type": "error"
    },
    {
      "inputs": [
        {
          "internalType": "address",
          "name": "owner",
          "type": "address"
        }
      ],
      "name": "OwnableInvalidOwner",
      "type": "error"
    },
    {
      "inputs": [
        {
          "internalType": "address",
          "name": "account",
          "type": "address"
        }
      ],
      "name": "OwnableUnauthorizedAccount",
      "type": "error"
    },
    {
      "inputs": [
        {
          "internalType": "uint8",
          "name": "bits",
          "type": "uint8"
        },
        {
          "internalType": "uint256",
          "name": "value",
          "type": "uint256"
        }
      ],
      "name": "SafeCastOverflowedUintDowncast",
      "type": "error"
    },
    {
      "inputs": [
        {
          "internalType": "address",
          "name": "token",
          "type": "address"
        }
      ],
      "name": "SafeERC20FailedOperation",
      "type": "error"
    },
    {
      "anonymous": false,
      "inputs": [
        {
          "indexed": true,
          "internalType": "address",
          "name": "previousOwner",
          "type": "address"
        },
        {
          "indexed": true,
          "internalType": "address",
          "name": "newOwner",
          "type": "address"
        }
      ],
      "name": "OwnershipTransferred",
      "type": "event"
    },
    {
      "anonymous": false,
      "inputs": [
        {
          "indexed": false,
          "internalType": "uint32",
          "name": "eid",
          "type": "uint32"
        },
        {
          "indexed": false,
          "internalType": "bytes32",
          "name": "peer",
          "type": "bytes32"
        }
      ],
      "name": "PeerSet",
      "type": "event"
    },
    {
      "inputs": [
        {
          "components": [
            {
              "internalType": "uint32",
              "name": "srcEid",
              "type": "uint32"
            },
            {
              "internalType": "bytes32",
              "name": "sender",
              "type": "bytes32"
            },
            {
              "internalType": "uint64",
              "name": "nonce",
              "type": "uint64"
            }
          ],
          "internalType": "struct Origin",
          "name": "origin",
          "type": "tuple"
        }
      ],
      "name": "allowInitializePath",
      "outputs": [
        {
          "internalType": "bool",
          "name": "",
          "type": "bool"
        }
      ],
      "stateMutability": "view",
      "type": "function"
    },
    {
      "inputs": [
        {
          "internalType": "uint16",
          "name": "appLabel",
          "type": "uint16"
        },
        {
          "components": [
            {
              "internalType": "uint16",
              "name": "appRequestLabel",
              "type": "uint16"
            },
            {
              "internalType": "uint32",
              "name": "targetEid",
              "type": "uint32"
            },
            {
              "internalType": "bool",
              "name": "isBlockNum",
              "type": "bool"
            },
            {
              "internalType": "uint64",
              "name": "blockNumOrTimestamp",
              "type": "uint64"
            },
            {
              "internalType": "uint16",
              "name": "confirmations",
              "type": "uint16"
            },
            {
              "internalType": "address",
              "name": "to",
              "type": "address"
            }
          ],
          "internalType": "struct MyOAppRead.EvmReadRequest[]",
          "name": "_readRequests",
          "type": "tuple[]"
        },
        {
          "components": [
            {
              "internalType": "uint8",
              "name": "computeSetting",
              "type": "uint8"
            },
            {
              "internalType": "uint32",
              "name": "targetEid",
              "type": "uint32"
            },
            {
              "internalType": "bool",
              "name": "isBlockNum",
              "type": "bool"
            },
            {
              "internalType": "uint64",
              "name": "blockNumOrTimestamp",
              "type": "uint64"
            },
            {
              "internalType": "uint16",
              "name": "confirmations",
              "type": "uint16"
            },
            {
              "internalType": "address",
              "name": "to",
              "type": "address"
            }
          ],
          "internalType": "struct MyOAppRead.EvmComputeRequest",
          "name": "_computeRequest",
          "type": "tuple"
        }
      ],
      "name": "buildCmd",
      "outputs": [
        {
          "internalType": "bytes",
          "name": "",
          "type": "bytes"
        }
      ],
      "stateMutability": "pure",
      "type": "function"
    },
    {
      "inputs": [],
      "name": "data",
      "outputs": [
        {
          "internalType": "bytes",
          "name": "",
          "type": "bytes"
        }
      ],
      "stateMutability": "view",
      "type": "function"
    },
    {
      "inputs": [],
      "name": "endpoint",
      "outputs": [
        {
          "internalType": "contract ILayerZeroEndpointV2",
          "name": "",
          "type": "address"
        }
      ],
      "stateMutability": "view",
      "type": "function"
    },
    {
      "inputs": [],
      "name": "identifier",
      "outputs": [
        {
          "internalType": "string",
          "name": "",
          "type": "string"
        }
      ],
      "stateMutability": "view",
      "type": "function"
    },
    {
      "inputs": [
        {
          "components": [
            {
              "internalType": "uint32",
              "name": "srcEid",
              "type": "uint32"
            },
            {
              "internalType": "bytes32",
              "name": "sender",
              "type": "bytes32"
            },
            {
              "internalType": "uint64",
              "name": "nonce",
              "type": "uint64"
            }
          ],
          "internalType": "struct Origin",
          "name": "",
          "type": "tuple"
        },
        {
          "internalType": "bytes",
          "name": "",
          "type": "bytes"
        },
        {
          "internalType": "address",
          "name": "_sender",
          "type": "address"
        }
      ],
      "name": "isComposeMsgSender",
      "outputs": [
        {
          "internalType": "bool",
          "name": "",
          "type": "bool"
        }
      ],
      "stateMutability": "view",
      "type": "function"
    },
    {
      "inputs": [
        {
          "internalType": "bytes",
          "name": "_request",
          "type": "bytes"
        },
        {
          "internalType": "bytes",
          "name": "_response",
          "type": "bytes"
        }
      ],
      "name": "lzMap",
      "outputs": [
        {
          "internalType": "bytes",
          "name": "",
          "type": "bytes"
        }
      ],
      "stateMutability": "pure",
      "type": "function"
    },
    {
      "inputs": [
        {
          "components": [
            {
              "internalType": "uint32",
              "name": "srcEid",
              "type": "uint32"
            },
            {
              "internalType": "bytes32",
              "name": "sender",
              "type": "bytes32"
            },
            {
              "internalType": "uint64",
              "name": "nonce",
              "type": "uint64"
            }
          ],
          "internalType": "struct Origin",
          "name": "_origin",
          "type": "tuple"
        },
        {
          "internalType": "bytes32",
          "name": "_guid",
          "type": "bytes32"
        },
        {
          "internalType": "bytes",
          "name": "_message",
          "type": "bytes"
        },
        {
          "internalType": "address",
          "name": "_executor",
          "type": "address"
        },
        {
          "internalType": "bytes",
          "name": "_extraData",
          "type": "bytes"
        }
      ],
      "name": "lzReceive",
      "outputs": [],
      "stateMutability": "payable",
      "type": "function"
    },
    {
      "inputs": [
        {
          "internalType": "bytes",
          "name": "_cmd",
          "type": "bytes"
        },
        {
          "internalType": "bytes[]",
          "name": "_responses",
          "type": "bytes[]"
        }
      ],
      "name": "lzReduce",
      "outputs": [
        {
          "internalType": "bytes",
          "name": "",
          "type": "bytes"
        }
      ],
      "stateMutability": "pure",
      "type": "function"
    },
    {
      "inputs": [],
      "name": "myInformation",
      "outputs": [
        {
          "internalType": "bytes",
          "name": "",
          "type": "bytes"
        }
      ],
      "stateMutability": "view",
      "type": "function"
    },
    {
      "inputs": [
        {
          "internalType": "uint32",
          "name": "",
          "type": "uint32"
        },
        {
          "internalType": "bytes32",
          "name": "",
          "type": "bytes32"
        }
      ],
      "name": "nextNonce",
      "outputs": [
        {
          "internalType": "uint64",
          "name": "nonce",
          "type": "uint64"
        }
      ],
      "stateMutability": "view",
      "type": "function"
    },
    {
      "inputs": [],
      "name": "oAppVersion",
      "outputs": [
        {
          "internalType": "uint64",
          "name": "senderVersion",
          "type": "uint64"
        },
        {
          "internalType": "uint64",
          "name": "receiverVersion",
          "type": "uint64"
        }
      ],
      "stateMutability": "pure",
      "type": "function"
    },
    {
      "inputs": [],
      "name": "owner",
      "outputs": [
        {
          "internalType": "address",
          "name": "",
          "type": "address"
        }
      ],
      "stateMutability": "view",
      "type": "function"
    },
    {
      "inputs": [
        {
          "internalType": "uint32",
          "name": "eid",
          "type": "uint32"
        }
      ],
      "name": "peers",
      "outputs": [
        {
          "internalType": "bytes32",
          "name": "peer",
          "type": "bytes32"
        }
      ],
      "stateMutability": "view",
      "type": "function"
    },
    {
      "inputs": [
        {
          "internalType": "uint32",
          "name": "_channelId",
          "type": "uint32"
        },
        {
          "internalType": "uint16",
          "name": "_appLabel",
          "type": "uint16"
        },
        {
          "components": [
            {
              "internalType": "uint16",
              "name": "appRequestLabel",
              "type": "uint16"
            },
            {
              "internalType": "uint32",
              "name": "targetEid",
              "type": "uint32"
            },
            {
              "internalType": "bool",
              "name": "isBlockNum",
              "type": "bool"
            },
            {
              "internalType": "uint64",
              "name": "blockNumOrTimestamp",
              "type": "uint64"
            },
            {
              "internalType": "uint16",
              "name": "confirmations",
              "type": "uint16"
            },
            {
              "internalType": "address",
              "name": "to",
              "type": "address"
            }
          ],
          "internalType": "struct MyOAppRead.EvmReadRequest[]",
          "name": "_requests",
          "type": "tuple[]"
        },
        {
          "components": [
            {
              "internalType": "uint8",
              "name": "computeSetting",
              "type": "uint8"
            },
            {
              "internalType": "uint32",
              "name": "targetEid",
              "type": "uint32"
            },
            {
              "internalType": "bool",
              "name": "isBlockNum",
              "type": "bool"
            },
            {
              "internalType": "uint64",
              "name": "blockNumOrTimestamp",
              "type": "uint64"
            },
            {
              "internalType": "uint16",
              "name": "confirmations",
              "type": "uint16"
            },
            {
              "internalType": "address",
              "name": "to",
              "type": "address"
            }
          ],
          "internalType": "struct MyOAppRead.EvmComputeRequest",
          "name": "_computeRequest",
          "type": "tuple"
        },
        {
          "internalType": "bytes",
          "name": "_options",
          "type": "bytes"
        },
        {
          "internalType": "bool",
          "name": "_payInLzToken",
          "type": "bool"
        }
      ],
      "name": "quote",
      "outputs": [
        {
          "components": [
            {
              "internalType": "uint256",
              "name": "nativeFee",
              "type": "uint256"
            },
            {
              "internalType": "uint256",
              "name": "lzTokenFee",
              "type": "uint256"
            }
          ],
          "internalType": "struct MessagingFee",
          "name": "fee",
          "type": "tuple"
        }
      ],
      "stateMutability": "view",
      "type": "function"
    },
    {
      "inputs": [],
      "name": "renounceOwnership",
      "outputs": [],
      "stateMutability": "nonpayable",
      "type": "function"
    },
    {
      "inputs": [
        {
          "internalType": "uint32",
          "name": "_channelId",
          "type": "uint32"
        },
        {
          "internalType": "uint16",
          "name": "_appLabel",
          "type": "uint16"
        },
        {
          "components": [
            {
              "internalType": "uint16",
              "name": "appRequestLabel",
              "type": "uint16"
            },
            {
              "internalType": "uint32",
              "name": "targetEid",
              "type": "uint32"
            },
            {
              "internalType": "bool",
              "name": "isBlockNum",
              "type": "bool"
            },
            {
              "internalType": "uint64",
              "name": "blockNumOrTimestamp",
              "type": "uint64"
            },
            {
              "internalType": "uint16",
              "name": "confirmations",
              "type": "uint16"
            },
            {
              "internalType": "address",
              "name": "to",
              "type": "address"
            }
          ],
          "internalType": "struct MyOAppRead.EvmReadRequest[]",
          "name": "_requests",
          "type": "tuple[]"
        },
        {
          "components": [
            {
              "internalType": "uint8",
              "name": "computeSetting",
              "type": "uint8"
            },
            {
              "internalType": "uint32",
              "name": "targetEid",
              "type": "uint32"
            },
            {
              "internalType": "bool",
              "name": "isBlockNum",
              "type": "bool"
            },
            {
              "internalType": "uint64",
              "name": "blockNumOrTimestamp",
              "type": "uint64"
            },
            {
              "internalType": "uint16",
              "name": "confirmations",
              "type": "uint16"
            },
            {
              "internalType": "address",
              "name": "to",
              "type": "address"
            }
          ],
          "internalType": "struct MyOAppRead.EvmComputeRequest",
          "name": "_computeRequest",
          "type": "tuple"
        },
        {
          "internalType": "bytes",
          "name": "_options",
          "type": "bytes"
        }
      ],
      "name": "send",
      "outputs": [
        {
          "components": [
            {
              "internalType": "bytes32",
              "name": "guid",
              "type": "bytes32"
            },
            {
              "internalType": "uint64",
              "name": "nonce",
              "type": "uint64"
            },
            {
              "components": [
                {
                  "internalType": "uint256",
                  "name": "nativeFee",
                  "type": "uint256"
                },
                {
                  "internalType": "uint256",
                  "name": "lzTokenFee",
                  "type": "uint256"
                }
              ],
              "internalType": "struct MessagingFee",
              "name": "fee",
              "type": "tuple"
            }
          ],
          "internalType": "struct MessagingReceipt",
          "name": "receipt",
          "type": "tuple"
        }
      ],
      "stateMutability": "payable",
      "type": "function"
    },
    {
      "inputs": [
        {
          "internalType": "address",
          "name": "_delegate",
          "type": "address"
        }
      ],
      "name": "setDelegate",
      "outputs": [],
      "stateMutability": "nonpayable",
      "type": "function"
    },
    {
      "inputs": [
        {
          "internalType": "uint32",
          "name": "_eid",
          "type": "uint32"
        },
        {
          "internalType": "bytes32",
          "name": "_peer",
          "type": "bytes32"
        }
      ],
      "name": "setPeer",
      "outputs": [],
      "stateMutability": "nonpayable",
      "type": "function"
    },
    {
      "inputs": [
        {
          "internalType": "uint32",
          "name": "_channelId",
          "type": "uint32"
        },
        {
          "internalType": "bool",
          "name": "_active",
          "type": "bool"
        }
      ],
      "name": "setReadChannel",
      "outputs": [],
      "stateMutability": "nonpayable",
      "type": "function"
    },
    {
      "inputs": [
        {
          "internalType": "address",
          "name": "_verifier",
          "type": "address"
        }
      ],
      "name": "setVerifier",
      "outputs": [],
      "stateMutability": "nonpayable",
      "type": "function"
    },
    {
      "inputs": [
        {
          "internalType": "address",
          "name": "newOwner",
          "type": "address"
        }
      ],
      "name": "transferOwnership",
      "outputs": [],
      "stateMutability": "nonpayable",
      "type": "function"
    },
    {
      "inputs": [],
      "name": "verifier",
      "outputs": [
        {
          "internalType": "contract Verifier",
          "name": "",
          "type": "address"
        }
      ],
      "stateMutability": "view",
      "type": "function"
    }
  ],
  "transactionHash": "0x4a8260d9c7836a817f332772f97b085f74dd5e354ca10d09faccc7434e6fa124",
  "args": [
    "0x6EDCE65403992e310A62460808c4b910D972f10f",
    "0xc1a9A8d0F6448e61d3500262cE3ce857b02f1D0F",
    "oAppRead-base-sepolia-testnet"
  ],
  "numDeployments": 3,
  "solcInputHash": "ba4f138603fc92beea0f303ad30bc921",
  "bytecode": "0x602060c052601560e0527f4e6f7468696e67207265636569766564207965742e000000000000000000000061010052606060a09081526101206040526004906200004a908262000264565b503480156200005857600080fd5b5060405162002732380380620027328339810160408190526200007b916200034d565b828281818181806001600160a01b038116620000b157604051631e4fbdf760e01b81526000600482015260240160405180910390fd5b620000bc816200016d565b506001600160a01b038083166080528116620000eb57604051632d618d8160e21b815260040160405180910390fd5b60805160405163ca5eb5e160e01b81526001600160a01b0383811660048301529091169063ca5eb5e190602401600060405180830381600087803b1580156200013357600080fd5b505af115801562000148573d6000803e3d6000fd5b50505050505050505050806003908162000163919062000264565b5050505062000447565b600080546001600160a01b038381166001600160a01b0319831681178455604051919092169283917f8be0079c531659141344cd1fd0a4f28419497f9722a3daafe3b4186f6b6457e09190a35050565b634e487b7160e01b600052604160045260246000fd5b600181811c90821680620001e857607f821691505b6020821081036200020957634e487b7160e01b600052602260045260246000fd5b50919050565b601f8211156200025f576000816000526020600020601f850160051c810160208610156200023a5750805b601f850160051c820191505b818110156200025b5782815560010162000246565b5050505b505050565b81516001600160401b03811115620002805762000280620001bd565b6200029881620002918454620001d3565b846200020f565b602080601f831160018114620002d05760008415620002b75750858301515b600019600386901b1c1916600185901b1785556200025b565b600085815260208120601f198616915b828110156200030157888601518255948401946001909101908401620002e0565b5085821015620003205787850151600019600388901b60f8161c191681555b5050505050600190811b01905550565b80516001600160a01b03811681146200034857600080fd5b919050565b6000806000606084860312156200036357600080fd5b6200036e8462000330565b925060206200037f81860162000330565b60408601519093506001600160401b03808211156200039d57600080fd5b818701915087601f830112620003b257600080fd5b815181811115620003c757620003c7620001bd565b604051601f8201601f19908116603f01168101908382118183101715620003f257620003f2620001bd565b816040528281528a868487010111156200040b57600080fd5b600093505b828410156200042f578484018601518185018701529285019262000410565b60008684830101528096505050505050509250925092565b6080516122a56200048d6000396000818161025e0152818161049101528181610a4101528181610c7701528181610e4701528181611057015261111001526122a56000f3fe6080604052600436106101405760003560e01c80637d25a05e116100b6578063ca5eb5e11161006f578063ca5eb5e1146103cf578063e60c287c146103ef578063eba1cf081461040f578063f0a9e4811461042f578063f2fde38b1461044f578063ff7bd03d1461046f57600080fd5b80637d25a05e146102bf57806382413eac146102f75780638da5cb5b146103365780639172f01214610354578063a8cb182f14610374578063bb0b6a531461039457600080fd5b80633400288b116101085780633400288b1461020c5780635437988d1461022c5780635e280f111461024c578063715018a61461028057806373d4a13a146102955780637998a1c4146102aa57600080fd5b806313137d6514610145578063135637f11461015a57806317442b701461019057806323a3727a146101b25780632b7ac3f3146101d4575b600080fd5b610158610153366004611466565b61048f565b005b34801561016657600080fd5b5061017a61017536600461174a565b61054f565b60405161018791906117fa565b60405180910390f35b34801561019c57600080fd5b5060408051600181526002602082015201610187565b3480156101be57600080fd5b506101c76105c2565b6040516101879190611861565b3480156101e057600080fd5b506002546101f4906001600160a01b031681565b6040516001600160a01b039091168152602001610187565b34801561021857600080fd5b5061015861022736600461187b565b6105ec565b34801561023857600080fd5b506101586102473660046118a5565b610602565b34801561025857600080fd5b506101f47f000000000000000000000000000000000000000000000000000000000000000081565b34801561028c57600080fd5b5061015861062c565b3480156102a157600080fd5b506101c7610640565b3480156102b657600080fd5b506101c76106ce565b3480156102cb57600080fd5b506102df6102da36600461187b565b6106db565b6040516001600160401b039091168152602001610187565b34801561030357600080fd5b506103266103123660046118c2565b6001600160a01b0381163014949350505050565b6040519015158152602001610187565b34801561034257600080fd5b506000546001600160a01b03166101f4565b610367610362366004611928565b6106e4565b60405161018791906119c6565b34801561038057600080fd5b506101c761038f366004611a08565b61075f565b3480156103a057600080fd5b506103c16103af366004611a67565b60016020526000908152604090205481565b604051908152602001610187565b3480156103db57600080fd5b506101586103ea3660046118a5565b610a1a565b3480156103fb57600080fd5b506101c761040a366004611a82565b610aa0565b34801561041b57600080fd5b506101c761042a366004611aed565b610adf565b34801561043b57600080fd5b5061015861044a366004611b86565b610b7c565b34801561045b57600080fd5b5061015861046a3660046118a5565b610b9a565b34801561047b57600080fd5b5061032661048a366004611bb9565b610bd8565b7f00000000000000000000000000000000000000000000000000000000000000006001600160a01b031633146104df576040516391ac5e4f60e01b81523360048201526024015b60405180910390fd5b602087018035906104f9906104f4908a611a67565b610c0e565b146105375761050b6020880188611a67565b60405163309afaf360e21b815263ffffffff9091166004820152602088013560248201526044016104d6565b61054687878787878787610c4a565b50505050505050565b6040805180820190915260008082526020820152600061057088888861075f565b90506105b5898287878080601f016020809104026020016040519081016040528093929190818152602001838380828437600092019190915250899250610c61915050565b9998505050505050505050565b60606003436040516020016105d8929190611c09565b604051602081830303815290604052905090565b6105f4610d42565b6105fe8282610d6f565b5050565b61060a610d42565b600280546001600160a01b0319166001600160a01b0392909216919091179055565b610634610d42565b61063e6000610dc4565b565b6004805461064d90611bd5565b80601f016020809104026020016040519081016040528092919081815260200182805461067990611bd5565b80156106c65780601f1061069b576101008083540402835291602001916106c6565b820191906000526020600020905b8154815290600101906020018083116106a957829003601f168201915b505050505081565b6003805461064d90611bd5565b60005b92915050565b6106ec6113aa565b60006106f987878761075f565b9050610753888286868080601f01602080910402602001604051908101604052809392919081815260200183838082843760009201829052506040805180820190915234815260208101919091529250339150610e149050565b98975050505050505050565b606060008351116107b25760405162461bcd60e51b815260206004820152601d60248201527f4c7a52656164436f756e7465723a20656d70747920726571756573747300000060448201526064016104d6565b600083516001600160401b038111156107cd576107cd611530565b60405190808252806020026020018201604052801561083657816020015b6040805160e0810182526000808252602080830182905292820181905260608083018290526080830182905260a083019190915260c082015282526000199092019101816107eb5790505b50905060005b845181101561091a57600085828151811061085957610859611cb7565b6020908102919091018101516040805160e081018252825161ffff90811682528385015163ffffffff1682860152828401511515828401526060808501516001600160401b0316908301526080808501519091169082015260a0808401516001600160a01b0316908201528151600481526024810190925292810180516001600160e01b03166311d1b93d60e11b17905260c0830152845190925084908490811061090657610906611cb7565b60209081029190910101525060010161083c565b508251600360ff909116111561097e5760405162461bcd60e51b815260206004820152602360248201527f4c7a52656164436f756e7465723a20696e76616c696420636f6d70757465207460448201526279706560e81b60648201526084016104d6565b60006040518060c00160405280856000015160ff168152602001600360ff16866000015160ff16146109b45785602001516109b7565b60005b63ffffffff16815260200185604001511515815260200185606001516001600160401b03168152602001856080015161ffff1681526020018560a001516001600160a01b031681525090506000610a0f878484610f14565b979650505050505050565b610a22610d42565b60405163ca5eb5e160e01b81526001600160a01b0382811660048301527f0000000000000000000000000000000000000000000000000000000000000000169063ca5eb5e190602401600060405180830381600087803b158015610a8557600080fd5b505af1158015610a99573d6000803e3d6000fd5b5050505050565b60606000610aae8686610f4b565b9050838382604051602001610ac593929190611ccd565b604051602081830303815290604052915050949350505050565b60606000610aed8686610fcc565b9050606060005b84811015610b4d5781868683818110610b0f57610b0f611cb7565b9050602002810190610b219190611d09565b604051602001610b3393929190611d4f565b60408051601f198184030181529190529150600101610af4565b508082604051602001610b61929190611d77565b60405160208183030381529060405292505050949350505050565b610b84610d42565b6105fe8282610b94576000610d6f565b30610d6f565b610ba2610d42565b6001600160a01b038116610bcc57604051631e4fbdf760e01b8152600060048201526024016104d6565b610bd581610dc4565b50565b6000602082018035906001908390610bf09086611a67565b63ffffffff1681526020810191909152604001600020541492915050565b63ffffffff8116600090815260016020526040812054806106de5760405163f6ff4fb760e01b815263ffffffff841660048201526024016104d6565b6004610c57858783611e13565b5050505050505050565b60408051808201909152600080825260208201527f00000000000000000000000000000000000000000000000000000000000000006001600160a01b031663ddc28c586040518060a001604052808863ffffffff168152602001610cc489610c0e565b8152602001878152602001868152602001851515815250306040518363ffffffff1660e01b8152600401610cf9929190611ed2565b6040805180830381865afa158015610d15573d6000803e3d6000fd5b505050506040513d601f19601f82011682018060405250810190610d399190611f99565b95945050505050565b6000546001600160a01b0316331461063e5760405163118cdaa760e01b81523360048201526024016104d6565b63ffffffff8216600081815260016020908152604091829020849055815192835282018390527f238399d427b947898edb290f5ff0f9109849b1c3ba196a42e35f00c50a54b98b910160405180910390a15050565b600080546001600160a01b038381166001600160a01b0319831681178455604051919092169283917f8be0079c531659141344cd1fd0a4f28419497f9722a3daafe3b4186f6b6457e09190a35050565b610e1c6113aa565b6000610e2b846000015161102b565b602085015190915015610e4557610e458460200151611053565b7f00000000000000000000000000000000000000000000000000000000000000006001600160a01b0316632637a450826040518060a001604052808b63ffffffff168152602001610e958c610c0e565b81526020018a815260200189815260200160008960200151111515815250866040518463ffffffff1660e01b8152600401610ed1929190611ed2565b60806040518083038185885af1158015610eef573d6000803e3d6000fd5b50505050506040513d601f19601f82011682018060405250810190610a0f9190611fb5565b60606000610f228585611135565b9050826020015163ffffffff16600014610f4357610f4081846111c5565b90505b949350505050565b6000808084848281610f5f57610f5f611cb7565b919091013560f81c9150610f76905060018361201c565b915060ff8116600114610f9c5760405163a9146eeb60e01b815260040160405180910390fd5b848285610faa82600261201c565b92610fb79392919061203d565b610fc091612067565b60f01c95945050505050565b60008080848185610fde82600261201c565b92610feb9392919061203d565b610ff491612067565b60f01c905061100460028361201c565b915061ffff8116600114610f9c5760405163a9146eeb60e01b815260040160405180910390fd5b600081341461104f576040516304fb820960e51b81523460048201526024016104d6565b5090565b60007f00000000000000000000000000000000000000000000000000000000000000006001600160a01b031663e4fe1d946040518163ffffffff1660e01b8152600401602060405180830381865afa1580156110b3573d6000803e3d6000fd5b505050506040513d601f19601f820116820180604052508101906110d79190612097565b90506001600160a01b038116611100576040516329b99a9560e11b815260040160405180910390fd5b6105fe6001600160a01b038216337f000000000000000000000000000000000000000000000000000000000000000085611218565b606060006001846111468551611278565b6040516001600160f01b031960f094851b8116602083015292841b83166022820152921b166024820152602601604051602081830303815290604052905060005b83518110156111bd576111b3828583815181106111a6576111a6611cb7565b60200260200101516112a7565b9150600101611187565b509392505050565b606082600180846000015185602001518660400151876060015188608001518960a00151604051602001611201999897969594939291906120b4565b604051602081830303815290604052905092915050565b604080516001600160a01b0385811660248301528416604482015260648082018490528251808303909101815260849091019091526020810180516001600160e01b03166323b872dd60e01b179052611272908590611339565b50505050565b600061ffff82111561104f576040516306dfcc6560e41b815260106004820152602481018390526044016104d6565b60606000836001846000015160016112cf8760c001515160236112ca919061201c565b611278565b6020808901516040516112e79796959493920161217a565b60408051601f19818403018152828252908501516060860151608087015160a088015160c0890151949650611321958795906020016121ed565b60405160208183030381529060405291505092915050565b600080602060008451602086016000885af18061135c576040513d6000823e3d81fd5b50506000513d91508115611374578060011415611381565b6001600160a01b0384163b155b1561127257604051635274afe760e01b81526001600160a01b03851660048201526024016104d6565b60405180606001604052806000801916815260200160006001600160401b031681526020016113ec604051806040016040528060008152602001600081525090565b905290565b60006060828403121561140357600080fd5b50919050565b60008083601f84011261141b57600080fd5b5081356001600160401b0381111561143257600080fd5b60208301915083602082850101111561144a57600080fd5b9250929050565b6001600160a01b0381168114610bd557600080fd5b600080600080600080600060e0888a03121561148157600080fd5b61148b89896113f1565b96506060880135955060808801356001600160401b03808211156114ae57600080fd5b6114ba8b838c01611409565b909750955060a08a013591506114cf82611451565b90935060c089013590808211156114e557600080fd5b506114f28a828b01611409565b989b979a50959850939692959293505050565b803563ffffffff8116811461151957600080fd5b919050565b803561ffff8116811461151957600080fd5b634e487b7160e01b600052604160045260246000fd5b60405160c081016001600160401b038111828210171561156857611568611530565b60405290565b604051601f8201601f191681016001600160401b038111828210171561159657611596611530565b604052919050565b8035801515811461151957600080fd5b6001600160401b0381168114610bd557600080fd5b600082601f8301126115d457600080fd5b813560206001600160401b038211156115ef576115ef611530565b6115fd818360051b0161156e565b82815260c0928302850182019282820191908785111561161c57600080fd5b8387015b858110156116af5781818a0312156116385760008081fd5b611640611546565b6116498261151e565b8152611656868301611505565b86820152604061166781840161159e565b9082015260608281013561167a816115ae565b90820152608061168b83820161151e565b9082015260a08281013561169e81611451565b908201528452928401928101611620565b5090979650505050505050565b600060c082840312156116ce57600080fd5b6116d6611546565b9050813560ff811681146116e957600080fd5b81526116f760208301611505565b60208201526117086040830161159e565b6040820152606082013561171b816115ae565b606082015261172c6080830161151e565b608082015260a082013561173f81611451565b60a082015292915050565b6000806000806000806000610160888a03121561176657600080fd5b61176f88611505565b965061177d6020890161151e565b955060408801356001600160401b038082111561179957600080fd5b6117a58b838c016115c3565b96506117b48b60608c016116bc565b95506101208a01359150808211156117cb57600080fd5b506117d88a828b01611409565b90945092506117ec9050610140890161159e565b905092959891949750929550565b8151815260208083015190820152604081016106de565b60005b8381101561182c578181015183820152602001611814565b50506000910152565b6000815180845261184d816020860160208601611811565b601f01601f19169290920160200192915050565b6020815260006118746020830184611835565b9392505050565b6000806040838503121561188e57600080fd5b61189783611505565b946020939093013593505050565b6000602082840312156118b757600080fd5b813561187481611451565b60008060008060a085870312156118d857600080fd5b6118e286866113f1565b935060608501356001600160401b038111156118fd57600080fd5b61190987828801611409565b909450925050608085013561191d81611451565b939692955090935050565b600080600080600080610140878903121561194257600080fd5b61194b87611505565b95506119596020880161151e565b945060408701356001600160401b038082111561197557600080fd5b6119818a838b016115c3565b95506119908a60608b016116bc565b94506101208901359150808211156119a757600080fd5b506119b489828a01611409565b979a9699509497509295939492505050565b6000608082019050825182526001600160401b0360208401511660208301526040830151611a01604084018280518252602090810151910152565b5092915050565b60008060006101008486031215611a1e57600080fd5b611a278461151e565b925060208401356001600160401b03811115611a4257600080fd5b611a4e868287016115c3565b925050611a5e85604086016116bc565b90509250925092565b600060208284031215611a7957600080fd5b61187482611505565b60008060008060408587031215611a9857600080fd5b84356001600160401b0380821115611aaf57600080fd5b611abb88838901611409565b90965094506020870135915080821115611ad457600080fd5b50611ae187828801611409565b95989497509550505050565b60008060008060408587031215611b0357600080fd5b84356001600160401b0380821115611b1a57600080fd5b611b2688838901611409565b90965094506020870135915080821115611b3f57600080fd5b818701915087601f830112611b5357600080fd5b813581811115611b6257600080fd5b8860208260051b8501011115611b7757600080fd5b95989497505060200194505050565b60008060408385031215611b9957600080fd5b611ba283611505565b9150611bb06020840161159e565b90509250929050565b600060608284031215611bcb57600080fd5b61187483836113f1565b600181811c90821680611be957607f821691505b60208210810361140357634e487b7160e01b600052602260045260246000fd5b632fb4b21d60e11b81526000600460008554611c2481611bd5565b60018281168015611c3c5760018114611c5757611c8b565b60ff1984166004890152600483151584028901019450611c8b565b8960005260208060002060005b85811015611c7f5781548b82018a0152908401908201611c64565b50505060048389010194505b50506c2fb13637b1b5a73ab6b132b91d60991b83525050600d8101948552505060209092019392505050565b634e487b7160e01b600052603260045260246000fd5b82848237742fb6b0b83832b22fb932b8bab2b9ba2630b132b61d60591b920191825260f01b6001600160f01b0319166015820152601701919050565b6000808335601e19843603018112611d2057600080fd5b8301803591506001600160401b03821115611d3a57600080fd5b60200191503681900382131561144a57600080fd5b60008451611d61818460208901611811565b8201838582376000930192835250909392505050565b60008351611d89818460208801611811565b712fb932b23ab1b2b22fb0b8382630b132b61d60711b92019182525060f09190911b6001600160f01b0319166012820152601401919050565b601f821115611e0e576000816000526020600020601f850160051c81016020861015611deb5750805b601f850160051c820191505b81811015611e0a57828155600101611df7565b5050505b505050565b6001600160401b03831115611e2a57611e2a611530565b611e3e83611e388354611bd5565b83611dc2565b6000601f841160018114611e725760008515611e5a5750838201355b600019600387901b1c1916600186901b178355610a99565b600083815260209020601f19861690835b82811015611ea35786850135825560209485019460019092019101611e83565b5086821015611ec05760001960f88860031b161c19848701351681555b505060018560011b0183555050505050565b6040815263ffffffff8351166040820152602083015160608201526000604084015160a06080840152611f0860e0840182611835565b90506060850151603f198483030160a0850152611f258282611835565b60809690960151151560c08501525050506001600160a01b039190911660209091015290565b600060408284031215611f5d57600080fd5b604051604081018181106001600160401b0382111715611f7f57611f7f611530565b604052825181526020928301519281019290925250919050565b600060408284031215611fab57600080fd5b6118748383611f4b565b600060808284031215611fc757600080fd5b604051606081018181106001600160401b0382111715611fe957611fe9611530565b604052825181526020830151611ffe816115ae565b60208201526120108460408501611f4b565b60408201529392505050565b808201808211156106de57634e487b7160e01b600052601160045260246000fd5b6000808585111561204d57600080fd5b8386111561205a57600080fd5b5050820193919092039150565b6001600160f01b0319813581811691600285101561208f5780818660020360031b1b83161692505b505092915050565b6000602082840312156120a957600080fd5b815161187481611451565b60008a516120c6818460208f01611811565b60f88b811b6001600160f81b031990811692850192835260f08c901b6001600160f01b03191660018401528a821b16600383015260e089901b6001600160e01b0319166004830152871515901b6008820152612131600982018760c01b6001600160c01b0319169052565b61214a601182018660f01b6001600160f01b0319169052565b612168601382018560601b6bffffffffffffffffffffffff19169052565b6027019b9a5050505050505050505050565b6000875161218c818460208c01611811565b60f89790971b6001600160f81b0319169190960190815260f094851b6001600160f01b0319908116600183015293851b841660038201529190931b909116600582015260e09190911b6001600160e01b0319166007820152600b0192915050565b600087516121ff818460208c01611811565b87151560f81b90830190815260c087901b6001600160c01b031916600182015260f086901b6001600160f01b0319166009820152606085901b6bffffffffffffffffffffffff1916600b820152835161225f81601f840160208801611811565b01601f019897505050505050505056fea2646970667358221220ff489df0debb2256754afd96b77d80479ece243cde1a3058793d2f4192c0c57a64736f6c63430008160033",
  "devdoc": {
    "errors": {
      "OwnableInvalidOwner(address)": [
        {
          "details": "The owner is not a valid owner account. (eg. `address(0)`)"
        }
      ],
      "OwnableUnauthorizedAccount(address)": [
        {
          "details": "The caller account is not authorized to perform an operation."
        }
      ],
      "SafeCastOverflowedUintDowncast(uint8,uint256)": [
        {
          "details": "Value doesn't fit in an uint of `bits` size."
        }
      ],
      "SafeERC20FailedOperation(address)": [
        {
          "details": "An operation with an ERC-20 token failed."
        }
      ]
    },
    "kind": "dev",
    "methods": {
      "allowInitializePath((uint32,bytes32,uint64))": {
        "details": "This indicates to the endpoint that the OApp has enabled msgs for this particular path to be received.This defaults to assuming if a peer has been set, its initialized. Can be overridden by the OApp if there is other logic to determine this.",
        "params": {
          "origin": "The origin information containing the source endpoint and sender address."
        },
        "returns": {
          "_0": "Whether the path has been initialized."
        }
      },
      "buildCmd(uint16,(uint16,uint32,bool,uint64,uint16,address)[],(uint8,uint32,bool,uint64,uint16,address))": {
        "params": {
          "_computeRequest": "A `EvmComputeRequest` struct containing the compute request to be made.",
          "_readRequests": "An array of `EvmReadRequest` structs containing the read requests to be made.",
          "appLabel": "The application label to use for the message."
        },
        "returns": {
          "_0": "cmd The encoded command to be sent to to the channel."
        }
      },
      "isComposeMsgSender((uint32,bytes32,uint64),bytes,address)": {
        "details": "_origin The origin information containing the source endpoint and sender address.  - srcEid: The source chain endpoint ID.  - sender: The sender address on the src chain.  - nonce: The nonce of the message._message The lzReceive payload.Applications can optionally choose to implement separate composeMsg senders that are NOT the bridging layer.The default sender IS the OAppReceiver implementer.",
        "params": {
          "_sender": "The sender address."
        },
        "returns": {
          "_0": "isSender Is a valid sender."
        }
      },
      "lzReceive((uint32,bytes32,uint64),bytes32,bytes,address,bytes)": {
        "details": "Entry point for receiving messages or packets from the endpoint.Entry point for receiving msg/packet from the LayerZero endpoint.",
        "params": {
          "_executor": "The address of the executor for the received message.",
          "_extraData": "Additional arbitrary data provided by the corresponding executor.",
          "_guid": "The unique identifier for the received LayerZero message.",
          "_message": "The payload of the received message.",
          "_origin": "The origin information containing the source endpoint and sender address.  - srcEid: The source chain endpoint ID.  - sender: The sender address on the src chain.  - nonce: The nonce of the message."
        }
      },
      "nextNonce(uint32,bytes32)": {
        "details": "_srcEid The source endpoint ID._sender The sender address.The path nonce starts from 1. If 0 is returned it means that there is NO nonce ordered enforcement.Is required by the off-chain executor to determine the OApp expects msg execution is ordered.This is also enforced by the OApp.By default this is NOT enabled. ie. nextNonce is hardcoded to return 0.",
        "returns": {
          "nonce": "The next nonce."
        }
      },
      "oAppVersion()": {
        "returns": {
          "receiverVersion": "The version of the OAppReceiver.sol implementation.",
          "senderVersion": "The version of the OAppSender.sol implementation."
        }
      },
      "owner()": {
        "details": "Returns the address of the current owner."
      },
      "quote(uint32,uint16,(uint16,uint32,bool,uint64,uint16,address)[],(uint8,uint32,bool,uint64,uint16,address),bytes,bool)": {
        "params": {
          "_appLabel": "The application label to use for the message.",
          "_channelId": "Read Channel ID to be used for the message.",
          "_computeRequest": "A `EvmComputeRequest` struct containing the compute request to be made.",
          "_options": "Message execution options (e.g., for sending gas to destination).",
          "_payInLzToken": "Whether to return fee in ZRO token.",
          "_requests": "An array of `EvmReadRequest` structs containing the read requests to be made."
        },
        "returns": {
          "fee": "A `MessagingFee` struct containing the calculated gas fee in either the native token or ZRO token."
        }
      },
      "renounceOwnership()": {
        "details": "Leaves the contract without owner. It will not be possible to call `onlyOwner` functions. Can only be called by the current owner. NOTE: Renouncing ownership will leave the contract without an owner, thereby disabling any functionality that is only available to the owner."
      },
      "send(uint32,uint16,(uint16,uint32,bool,uint64,uint16,address)[],(uint8,uint32,bool,uint64,uint16,address),bytes)": {
        "details": "Encodes the message as bytes and sends it using the `_lzSend` internal function.",
        "params": {
          "_appLabel": "The application label to use for the message.",
          "_channelId": "Read Channel ID to be used for the message.",
          "_computeRequest": "A `EvmComputeRequest` struct containing the compute request to be made.",
          "_options": "Message execution options (e.g., for sending gas to destination).",
          "_requests": "An array of `EvmReadRequest` structs containing the read requests to be made."
        },
        "returns": {
          "receipt": "A `MessagingReceipt` struct containing details of the message sent."
        }
      },
      "setDelegate(address)": {
        "details": "Only the owner/admin of the OApp can call this function.Provides the ability for a delegate to set configs, on behalf of the OApp, directly on the Endpoint contract.",
        "params": {
          "_delegate": "The address of the delegate to be set."
        }
      },
      "setPeer(uint32,bytes32)": {
        "details": "Only the owner/admin of the OApp can call this function.Indicates that the peer is trusted to send LayerZero messages to this OApp.Set this to bytes32(0) to remove the peer address.Peer is a bytes32 to accommodate non-evm chains.",
        "params": {
          "_eid": "The endpoint ID.",
          "_peer": "The address of the peer to be associated with the corresponding endpoint."
        }
      },
      "transferOwnership(address)": {
        "details": "Transfers ownership of the contract to a new account (`newOwner`). Can only be called by the current owner."
      }
    },
    "version": 1
  },
  "userdoc": {
    "kind": "user",
    "methods": {
      "allowInitializePath((uint32,bytes32,uint64))": {
        "notice": "Checks if the path initialization is allowed based on the provided origin."
      },
      "buildCmd(uint16,(uint16,uint32,bool,uint64,uint16,address)[],(uint8,uint32,bool,uint64,uint16,address))": {
        "notice": "Builds the command to be sent"
      },
      "endpoint()": {
        "notice": "Retrieves the LayerZero endpoint associated with the OApp."
      },
      "isComposeMsgSender((uint32,bytes32,uint64),bytes,address)": {
        "notice": "Indicates whether an address is an approved composeMsg sender to the Endpoint."
      },
      "nextNonce(uint32,bytes32)": {
        "notice": "Retrieves the next nonce for a given source endpoint and sender address."
      },
      "oAppVersion()": {
        "notice": "Retrieves the OApp version information."
      },
      "peers(uint32)": {
        "notice": "Retrieves the peer (OApp) associated with a corresponding endpoint."
      },
      "quote(uint32,uint16,(uint16,uint32,bool,uint64,uint16,address)[],(uint8,uint32,bool,uint64,uint16,address),bytes,bool)": {
        "notice": "Quotes the gas needed to pay for the full read command in native gas or ZRO token."
      },
      "send(uint32,uint16,(uint16,uint32,bool,uint64,uint16,address)[],(uint8,uint32,bool,uint64,uint16,address),bytes)": {
        "notice": "Send a read command in loopback through channelId"
      },
      "setDelegate(address)": {
        "notice": "Sets the delegate address for the OApp."
      },
      "setPeer(uint32,bytes32)": {
        "notice": "Sets the peer address (OApp instance) for a corresponding endpoint."
      }
    },
    "version": 1
  },
  "storageLayout": {
    "storage": [
      {
        "astId": 2444,
        "contract": "contracts/MyOAppRead.sol:MyOAppRead",
        "label": "_owner",
        "offset": 0,
        "slot": "0",
        "type": "t_address"
      },
      {
        "astId": 938,
        "contract": "contracts/MyOAppRead.sol:MyOAppRead",
        "label": "peers",
        "offset": 0,
        "slot": "1",
        "type": "t_mapping(t_uint32,t_bytes32)"
      },
      {
        "astId": 5317,
        "contract": "contracts/MyOAppRead.sol:MyOAppRead",
        "label": "verifier",
        "offset": 0,
        "slot": "2",
        "type": "t_contract(Verifier)5787"
      },
      {
        "astId": 5354,
        "contract": "contracts/MyOAppRead.sol:MyOAppRead",
        "label": "identifier",
        "offset": 0,
        "slot": "3",
        "type": "t_string_storage"
      },
      {
        "astId": 5360,
        "contract": "contracts/MyOAppRead.sol:MyOAppRead",
        "label": "data",
        "offset": 0,
        "slot": "4",
        "type": "t_bytes_storage"
      }
    ],
    "types": {
      "t_address": {
        "encoding": "inplace",
        "label": "address",
        "numberOfBytes": "20"
      },
      "t_bytes32": {
        "encoding": "inplace",
        "label": "bytes32",
        "numberOfBytes": "32"
      },
      "t_bytes_storage": {
        "encoding": "bytes",
        "label": "bytes",
        "numberOfBytes": "32"
      },
      "t_contract(Verifier)5787": {
        "encoding": "inplace",
        "label": "contract Verifier",
        "numberOfBytes": "20"
      },
      "t_mapping(t_uint32,t_bytes32)": {
        "encoding": "mapping",
        "key": "t_uint32",
        "label": "mapping(uint32 => bytes32)",
        "numberOfBytes": "32",
        "value": "t_bytes32"
      },
      "t_string_storage": {
        "encoding": "bytes",
        "label": "string",
        "numberOfBytes": "32"
      },
      "t_uint32": {
        "encoding": "inplace",
        "label": "uint32",
        "numberOfBytes": "4"
      }
    }
  }
}